{"abi":[{"type":"constructor","inputs":[{"name":"_b","type":"address","internalType":"address"}],"stateMutability":"payable"},{"type":"function","name":"payHalf","inputs":[],"outputs":[],"stateMutability":"nonpayable"}],"bytecode":{"object":"0x60806040526040516104c33803806104c383398181016040528101906100259190610279565b805f5f6101000a81548173ffffffffffffffffffffffffffffffffffffffff021916908373ffffffffffffffffffffffffffffffffffffffff1602179055506100935f5f9054906101000a900473ffffffffffffffffffffffffffffffffffffffff166100b760201b60201c565b6100a23461015660201b60201c565b6100b14761015660201b60201c565b506102fd565b610153816040516024016100cb91906102b3565b6040516020818303038152906040527f2c2ecbc2000000000000000000000000000000000000000000000000000000007bffffffffffffffffffffffffffffffffffffffffffffffffffffffff19166020820180517bffffffffffffffffffffffffffffffffffffffffffffffffffffffff83818316178352505050506101f560201b60201c565b50565b6101f28160405160240161016a91906102e4565b6040516020818303038152906040527ff5b1bba9000000000000000000000000000000000000000000000000000000007bffffffffffffffffffffffffffffffffffffffffffffffffffffffff19166020820180517bffffffffffffffffffffffffffffffffffffffffffffffffffffffff83818316178352505050506101f560201b60201c565b50565b5f815190505f6a636f6e736f6c652e6c6f679050602083015f5f8483855afa5050505050565b5f5ffd5b5f73ffffffffffffffffffffffffffffffffffffffff82169050919050565b5f6102488261021f565b9050919050565b6102588161023e565b8114610262575f5ffd5b50565b5f815190506102738161024f565b92915050565b5f6020828403121561028e5761028d61021b565b5b5f61029b84828501610265565b91505092915050565b6102ad8161023e565b82525050565b5f6020820190506102c65f8301846102a4565b92915050565b5f819050919050565b6102de816102cc565b82525050565b5f6020820190506102f75f8301846102d5565b92915050565b6101b98061030a5f395ff3fe608060405234801561000f575f5ffd5b5060043610610029575f3560e01c80631d9ab2701461002d575b5f5ffd5b610035610037565b005b5f4790505f5f5f9054906101000a900473ffffffffffffffffffffffffffffffffffffffff1673ffffffffffffffffffffffffffffffffffffffff166002836100809190610112565b60405161008c9061016f565b5f6040518083038185875af1925050503d805f81146100c6576040519150601f19603f3d011682016040523d82523d5f602084013e6100cb565b606091505b50509050806100d8575f5ffd5b5050565b5f819050919050565b7f4e487b71000000000000000000000000000000000000000000000000000000005f52601260045260245ffd5b5f61011c826100dc565b9150610127836100dc565b925082610137576101366100e5565b5b828204905092915050565b5f81905092915050565b50565b5f61015a5f83610142565b91506101658261014c565b5f82019050919050565b5f6101798261014f565b915081905091905056fea26469706673582212207abcc979e8ffe3e1ae676ca0301ea48fd39f98c35435c9c8a7072ee8a06e1b5064736f6c634300081c0033","linkReferences":{}},"methodIdentifiers":{"payHalf()":"1d9ab270"},"id":18}